:020000040800F2
:100000008806002029020008610B00087509000815
:100010005D0B00082B0500083911000800000000E6
:10002000000000000000000000000000DD0F0008DC
:100030002908000800000000910E0008CD100008FB
:10004000430200084302000843020008430200087C
:10005000430200084302000843020008430200086C
:10006000430200084302000843020008430200085C
:10007000430200084302000843020008430200084C
:10008000430200084302000843020008430200083C
:10009000430200084302000843020008430200082C
:1000A000430200084302000843020008430200081C
:1000B000430200084302000843020008430200080C
:1000C00043020008430200084302000843020008FC
:1000D00043020008430200084302000843020008EC
:1000E00043020008430200084302000843020008DC
:1000F00043020008430200084302000843020008CC
:1001000043020008430200084302000843020008BB
:1001100043020008430200084302000843020008AB
:1001200031050008430200084302000843020008AA
:10013000430200084302000843020008430200088B
:10014000430200084302000843020008430200087B
:10015000430200084302000843020008430200086B
:10016000430200084302000843020008430200085B
:10017000430200084302000843020008430200084B
:10018000430200084302000800F002F800F03CF8C7
:100190000AA090E8000C82448344AAF10107DA45E2
:1001A00001D100F031F8AFF2090EBAE80F0013F0F8
:1001B000010F18BFFB1A43F0010318470419000090
:1001C00024190000103A24BF78C878C1FAD8520721
:1001D00024BF30C830C144BF04680C6070470000C1
:1001E0000023002400250026103A28BF78C1FBD840
:1001F000520728BF30C148BF0B6070471FB501F0E0
:100200004EF81FBD10B510BD00F031F81146FFF7D4
:10021000F5FF01F019F800F04FF803B4FFF7F2FF13
:1002200003BC00F057F80000094880470948004720
:10023000FEE7FEE7FEE7FEE7FEE7FEE7FEE7FEE796
:10024000FEE7FEE704480549054A064B70470000F3
:10025000D1100008890100088800002088060020CD
:10026000880200208802002070477047704775465A
:1002700000F02CF8AE4605006946534620F0070012
:10028000854618B020B5FFF7DDFFBDE820404FF0F0
:1002900000064FF000074FF000084FF0000B21F070
:1002A0000701AC46ACE8C009ACE8C009ACE8C0093D
:1002B000ACE8C0098D46704710B50446AFF3008026
:1002C0002046BDE81040FFF7A8BF00000048704777
:1002D0002400002001491820ABBEFEE726000200E2
:1002E0007047000000B58DB00121084600F0D2FD36
:1002F0000121080200F0DEFD0121080200F0EAFD04
:1003000000214FF4807000F0E5FD03208DF83000EF
:1003100030200B9000208DF833000BA91E4800F010
:10032000E1FA4FF480400990002007904FF48030AC
:1003300008904FF470600A9007A800F03DF8012083
:100340008DF80900002005900490039002208DF89C
:1003500018000020019001208DF8080001A90F4825
:1003600000F058F80323022204210C4800F07CF826
:10037000032301220521094800F076F801210748EE
:1003800000F00EF80121054800F02EF80121034885
:1003900000F035F80DB000BD000002400020014023
:1003A00021B1826842F00102826003E0826822F09B
:1003B00001028260704700000021084A1168084A63
:1003C0001140D0E900231A4383681A43C3681A43D3
:1003D0001143044AC2F8041370470000042301408B
:1003E000E030FCFF0020014021B1826842F48072BD
:1003F000826003E0826822F480728260704721B1DB
:10040000826842F40072826003E0826822F4007223
:100410008260704730B50246002000235068104CBF
:1004200020400D790C6844EA052420435060906810
:100430000C4C2040D1E903542C438D682C434D795A
:1004400044EA450420439060D06A20F470000C7D9B
:10045000641EE4B2234340EA0350D06230BD000082
:10046000FFFEFFFCFDF7FFC0F0B504460D4600207F
:100470000021092D11DDE068A5F10A0606EB46070B
:10048000072606FA07F18843A5F10A0606EB460699
:1004900003FA06F10843E0600CE0206905EB45072C
:1004A000072606FA07F1884305EB450603FA06F12D
:1004B00008432061072A0FDA606B561E06EB860799
:1004C0001F2606FA07F18843561E06EB860605FA34
:1004D00006F10843606322E00D2A0FDA206BD61F75
:1004E00006EB86071F2606FA07F18843D61F06EBA0
:1004F000860605FA06F10843206310E0E06AA2F1DF
:100500000D0606EB86071F2606FA07F18843A2F1BF
:100510000D0606EB860605FA06F10843E062F0BD1B
:10052000816841F080418160704700BFFEE70000B4
:1005300008B50E490E4800F0FBF888B11020009075
:100540000C480288042303213F2000F051FC1020B6
:10055000009008484288042305213F2000F048FC11
:100560001021034800F008F808BD000020800010AA
:1005700010640240000000200246094B9A4201D25A
:10058000084801E00648103801F000531BB1064B43
:100590000B40C36002E0044B0B40836070470000D7
:1005A00010640240006002407D0F7D0F21B102689F
:1005B00042F00102026003E0026822F001020260E0
:1005C00070470000016821F0010101600021016015
:1005D00041608160C1600161212141614A498842D5
:1005E00004D13D21484A103A91608CE046491831C7
:1005F000884205D14FF47461434A103A916082E019
:1006000041493031884205D14FF474113E4A103AC5
:10061000916078E03C494831884205D14FF07461DF
:10062000394A103A91606EE037496031884204D10E
:100630003649354A103AD16065E03349783188420D
:1006400004D13349304A103AD1605CE02E499031F0
:10065000884204D12F492C4A103AD16053E02A49EC
:10066000A831884205D14FF03D51274A103AD16058
:1006700049E02949884204D13D21274A083A1160BE
:1006800041E025491831884205D14FF47461224A6E
:10069000083A116037E020493031884205D14FF4E3
:1006A00074111D4A083A11602DE01B4948318842F7
:1006B00005D14FF07461184A083A116023E01649D9
:1006C0006031884204D11149134A121F11601AE0A7
:1006D00011497831884204D10D490F4A121F116027
:1006E00011E00D499031884204D10A490A4A121F8B
:1006F000116008E00849A831884204D14FF03D510B
:10070000054A121F11607047106002403D00002032
:10071000400F002000003D201064024001460020F0
:100720000A6802F001020AB1012000E000207047CF
:1007300070B50246002000240025124EB24201D2BC
:10074000114B01E00F4B103B104E0E4036B11E26F0
:1007500006EAD124166806EA040502E0566906F0A6
:10076000800501F000560EB15C6800E01C68084E80
:10077000344004EA010616B10DB1012000E000206A
:1007800070BD000010640240006002403C0F3C0F4E
:100790007D0F7D0F10B501F080034BB122B143698D
:1007A00043F08003436103E0436923F08003436126
:1007B00080290BD02AB1036801F01E042343036093
:1007C00004E0036801F01E04A343036010BD0000B1
:1007D00010B500220268134B1A40CC680B68234303
:1007E0004C6923438C692343CC6923430C6A23431C
:1007F0004C6A23438C6A23434C6B23438C6B234307
:100800001A430260426922F00702D1E90B34234304
:100810001A4342610B6943604B6883608B68C36015
:1008200010BD00003F801CF0704700002DE9F04132
:1008300090B004460D4616461F46DDF858802848FD
:10084000844204D30121880500F024FB03E0012148
:10085000480500F01FFB2046FFF7B4FE0195CDF8D8
:10086000148000200C9001200D90002004904FF483
:1008700080700A904FF440300B90039702964FF42B
:10088000005009908010089000200E900F904FF4B7
:10089000806007900020069001A92046FFF798FF8E
:1008A00000BF2046FFF73AFF0128FAD001221021AD
:1008B0002046FFF76FFF38208DF8000001208DF8EB
:1008C000030000208DF801008DF80200684600F05A
:1008D00049F901212046FFF769FE10B0BDE8F0811B
:1008E00000640240F0B50A4600210023002400BF46
:1008F0003DE0012505FA01F3156805EA03049C4271
:1009000034D105684F000326BE40B5430560157914
:100910004E00B5400668354305601579012D02D0BB
:100920001579022D16D185684F000326BE40B543C8
:10093000856055794E00B5408668354385604568C9
:1009400001268E40B5434560456896798E40B6B223
:1009500035434560C5684F000326BE40B543C560BA
:10096000D5794E00B540C6683543C560491C10298D
:10097000BFD3F0BD00BFFEE71CB50121052000F08C
:1009800089FA01208DF8040000208DF806004FF44C
:100990008070009001208DF8070003208DF805007D
:1009A00069460748FFF79EFF69460648FFF79AFF2A
:1009B0000120054908600549C1F8A4021CBD0000DA
:1009C0000000024000080240A002404200004142F4
:1009D00070B504461848006820F4402016490860A5
:1009E0001648006840F4802014490860002014492B
:1009F000086000251CE0E00918B1012011490860D9
:100A000002E000200F4908606006040E052000F097
:100A1000EFFB01200A490860052000F0E9FB0020F7
:100A20000949C1F8A002052000F0E2FB681CC5B22C
:100A3000082DE0DB70BD0000000402400008024009
:100A4000A0024042A40241420000404210B51048BA
:100A5000006820F440200E4908600E48006840F409
:100A600080200C49086001200B4908600B49C1F83F
:100A7000A002052000F0BCFB00200749086005200B
:100A800000F0B6FB00200549C1F8A00210BD00002F
:100A90000004024000080240A4024142000040421B
:100AA00010B50F48006820F440200D4908600D483B
:100AB000006840F480200B49086000200A49086063
:100AC0000A49C1F8A402052000F092FB0120064962
:100AD00008600649C1F8A402052000F089FB10BD9A
:100AE0000004024000080240A002404200004142CF
:100AF00010B500241448006820F440201249086012
:100B0000124800681149086001201149086002205C
:100B100000F06EFB01200F49C1F8A002022000F096
:100B200067FB07E0601CC4B2FA2C03DDFFF7B8FFD7
:100B3000012010BD0648803800680028F2D106491F
:100B4000086000BFF5E70000000402400008024012
:100B5000A402414200004042A002404200BFFEE722
:100B60007047000070B5002100230F22C4781CB329
:100B7000174C246804F4E064C4F5E064C4F307216E
:100B8000C1F10404E3B20A4144789C40E1B28478A4
:100B9000144021430C07210E0E4C05786155047852
:100BA00004F01F050124AC4005786D11AD0005F17E
:100BB000E025C5F8004109E0047804F01F05012490
:100BC000AC40054D0678761145F8264070BD000012
:100BD0000CED00E000E400E080E100E002490143A8
:100BE000024A1160704700000000FA050CED00E0B9
:100BF00070B5002419E004F1B001C8B2002100F082
:100C00003BF90021084600F037F90021102000F0E0
:100C100033F9002505E00121002000F02DF9681CC2
:100C2000C5B2802DF7DB601CC4B2082CE3DB70BDBD
:100C300010B5FFF7A1FE4FF4FA7000F0AFFA0021F3
:100C4000AE2000F019F90021084600F015F9002146
:100C5000102000F011F90021402000F00DF90021D2
:100C6000812000F009F90021CF2000F005F90021D2
:100C7000A12000F001F90021C82000F0FDF80021BA
:100C8000A62000F0F9F80021A82000F0F5F80021D6
:100C90003F2000F0F1F80021D32000F0EDF8002112
:100CA000084600F0E9F80021D52000F0E5F8002121
:100CB000802000F0E1F80021D92000F0DDF80021CB
:100CC000F12000F0D9F80021DA2000F0D5F8002159
:100CD000122000F0D1F80021DB2000F0CDF8002137
:100CE000402000F0C9F80021202000F0C5F80021C4
:100CF000022000F0C1F800218D2000F0BDF8002195
:100D0000142000F0B9F80021A42000F0B5F800216B
:100D1000A62000F0B1F80021AF2000F0ADF810BD22
:100D200070B504460D4605F1B001C8B2002100F0CF
:100D3000A3F8102141EA1410002100F09DF804F0FE
:100D40000F00002100F098F870BD00002DE9F04779
:100D500007460E469046994600250024A8F120003B
:100D6000C5B27F2F02DD0027B01CC6B2B9F1100F4B
:100D700024D131463846FFF7D3FF002408E004EBC6
:100D80000511194A505C012100F076F8601CC4B2CC
:100D9000082CF4DB701CC1B23846FFF7C1FF0024F9
:100DA00009E004EB051108310F4A505C012100F005
:100DB00063F8601CC4B2082CF3DB12E031463846FD
:100DC000FFF7AEFF00240AE005EB4501074A02EBFE
:100DD0004101085D012100F04FF8601CC4B2062CEF
:100DE000F2DBBDE8F0870000D0140008A81200086C
:100DF0002DE9FF5F074691461E460E9D4FF0000A03
:100E0000002435E0301B401EC1B20A2000F03CFA3D
:100E1000B9FBF0F00A21B0FBF1F201FB1208BAF1C4
:100E2000000F14D1701EA04211DDB8F1000F0CD1DB
:100E3000AB4605EBDB71491001FB0471C8B22B46D0
:100E400020220199FFF782FF10E04FF0010AAB4624
:100E500005EBDB71491001FB0471C8B208F13001E8
:100E6000CAB22B460199FFF771FF00BF601CC4B2E4
:100E7000B442C7DBBDE8FF9F70B505460C461CB108
:100E8000284600F074F902E0284600F057F970BDDA
:100E90007047000029B1064A12680243044B1A60E9
:100EA00004E0034A12688243014B1A607047000055
:100EB0003038024029B1064A12680243044B1A60D6
:100EC00004E0034A12688243014B1A607047000035
:100ED0004438024029B1064A12680243044B1A60A2
:100EE00004E0034A12688243014B1A607047000015
:100EF00024380240F0B500210022002402250026FB
:100F00000223324F3F6807F00C0121B1042905D0BC
:100F1000082937D105E02E4F076036E02D4F0760D6
:100F200033E02A4F3F1F3F68C7F38056274F3F1FCC
:100F30003F6807F03F036EB1264FB7FBF3F7DFF8CA
:100F40008CC0ACF1040CDCF800C0CCF3881C07FBAF
:100F50000CF40CE01E4FB7FBF3F7DFF870C0ACF1F8
:100F6000040CDCF800C0CCF3881C07FB0CF4174F12
:100F70003F1F3F68C7F301477F1C7D00B4FBF5F7B7
:100F8000076002E0124F076000BF00BF0F4F3F68CD
:100F900007F0F0010909104F7A5C0768D7404760F5
:100FA0000A4F3F6807F4E051890A0B4F7A5C4768A3
:100FB000D7408760054F3F6807F46041490B064FF3
:100FC0007A5C4768D740C760F0BD0000083802402F
:100FD0000024F40000127A00040000207047000092
:100FE0000CB50020019000903448006840F4803037
:100FF0003249086000BF3148006800F400300090BA
:101000000198401C0190009818B90198B0F5A04FC4
:10101000F1D12A48006800F4003010B1012000909E
:1010200001E0002000900098012846D1234840307C
:10103000006840F080502149403108602048006835
:1010400040F440401E4908601C48083000681B49B5
:10105000083108600846006840F40040086008460F
:10106000006840F4A05008601648091F0860081F77
:10107000006840F08070091F086000BF0F480068DA
:1010800000F000700028F9D040F205700E490860A9
:101090000A480830006820F0030008490831086059
:1010A0000846006840F00200086000BF03480830AE
:1010B000006800F00C000828F8D10CBD0038024090
:1010C0000070004008544007003C02407047000098
:1010D00010B51548006840F47000134908601348C3
:1010E000006840F001001149086000200F490831F4
:1010F00008600E4800680E4908400C4908600D4819
:10110000091D0860081F006820F48020091F08607E
:10111000002006490C310860FFF762FF4FF00060C5
:1011200001498039086010BD88ED00E000380240B8
:10113000FFFFF6FE1030002400BFFEE710B50446A6
:10114000FFF784FC7820FFF743FCFFF7D1FC08B1E0
:1011500000BFFEE70020FFF73BFCFFF7C9FC20467D
:10116000FFF736FCFFF7C4FCFFF79AFC10BD10B583
:101170000446FFF76BFC7820FFF72AFCFFF7B8FC6A
:101180004020FFF725FCFFF7B3FC2046FFF720FCCB
:10119000FFF7AEFCFFF784FC10BD000070B50446FD
:1011A0001248FFF7A7FE11480068C5084FF47A708F
:1011B000B5FBF0F606FB04F04FF0E021486100209B
:1011C00088610846006940F00100086100BF4FF0E7
:1011D000E0200069C00B0028F9D04FF0E020006942
:1011E000C0F30E004FF0E021086170BD1400002034
:1011F00070B504461248FFF77DFE11480068C50827
:101200001048B5FBF0F6601E70434FF0E0214861D6
:10121000002088610846006940F00100086100BFB5
:101220004FF0E0200069C00B0028F9D04FF0E0201B
:101230000069C0F30E004FF0E021086170BD0000AE
:101240001400002040420F0008B54FF4A060FFF7E3
:10125000C5FCFFF747F80220084B094A002100901F
:101260000848FFF7E3FAFFF7E3FCFFF7C1FC044887
:101270004C38FFF755F900BFFEE7000000000020E2
:101280004C2001401064024010B50246012000E0ED
:1012900050430B1EA1F10104E1B2F9D110BD4FF092
:1012A0004070E1EE100A70470000000000000000EE
:1012B000002F000000000700070000147F147F14B7
:1012C00000242A7F2A12006264081323003649553D
:1012D000225000000503000000001C224100000015
:1012E00041221C000014083E08140008083E0808AB
:1012F000000000A060000008080808080000606006
:101300000000002010080402003E5149453E000044
:10131000427F4000004261514946002141454B3126
:10132000001814127F10002745454539003C4A49F2
:101330004930000171090503003649494936000664
:101340004949291E000036360000000056360000CC
:101350000008142241000014141414140000412247
:10136000140800020151090600324959513E007C1F
:101370001211127C007F49494936003E4141412209
:10138000007F4141221C007F49494941007F0909F2
:101390000901003E4149497A007F0808087F0000A2
:1013A000417F4100002040413F01007F081422415D
:1013B000007F40404040007F020C027F007F040815
:1013C000107F003E4141413E007F09090906003E71
:1013D0004151215E007F091929460046494949319A
:1013E0000001017F0101003F4040403F001F2040BD
:1013F000201F003F4038403F00631408146300077B
:101400000870080700615149454300007F414100D1
:1014100000552A552A55000041417F000004020171
:10142000020400404040404000000102040000204F
:1014300054545478007F484444380038444444208D
:1014400000384444487F00385454541800087E093A
:1014500001020018A4A4A47C007F08040478000002
:10146000447D4000004080847D00007F10284400BF
:101470000000417F4000007C04180478007C0804D0
:10148000047800384444443800FC2424241800180C
:10149000242418FC007C08040408004854545420F8
:1014A00000043F444020003C4040207C001C204081
:1014B000201C003C4030403C004428102844001CC4
:1014C000A0A0A07C004464544C44141414141414BC
:1014D000000000000000000000000000000000000C
:1014E000000000F8000000000000003330000000A1
:1014F00000100C06100C06000000000000000000A8
:1015000040C07840C0784000043F04043F04040019
:10151000007088FC08300000001820FF211E000029
:10152000F008F000E018000000211C031E211E003E
:1015300000F00888700000001E21232419272110C4
:1015400010160E0000000000000000000000000067
:10155000000000E01804020000000007182040000E
:1015600000020418E00000000040201807000000FE
:10157000404080F0804040000202010F0102020062
:10158000000000F0000000000101011F0101010046
:10159000000000000000000080B0700000000000AB
:1015A0000000000000000000000101010101010134
:1015B00000000000000000000030300000000000CB
:1015C00000000000806018040060180601000000A0
:1015D00000E010080810E000000F102020100F009D
:1015E000001010F8000000000020203F2020000024
:1015F000007008080888700000302824222130007C
:1016000000300888884830000018202020110E0083
:101610000000C02010F8000000070424243F24002C
:1016200000F80888880808000019212020110E0001
:1016300000E0108888180000000F112020110E0013
:1016400000380808C83808000000003F000000000B
:101650000070880808887000001C222121221C00CC
:1016600000E010080810E0000000312222110F00F5
:10167000000000C0C000000000000030300000008A
:1016800000000080000000000000806000000000FA
:101690000000804020100800000102040810200013
:1016A000404040404040400004040404040404005E
:1016B00000081020408000000020100804020100F3
:1016C000007048080808F0000000003036010000F3
:1016D000C030C828E810E0000718272423140B00A6
:1016E0000000C038E0000000203C23020227382020
:1016F00008F8888888700000203F202020110E0004
:10170000C0300808080838000718202020100800FA
:1017100008F808080810E000203F202020100F00E3
:1017200008F88888E8081000203F202023201800AF
:1017300008F88888E8081000203F20000300000017
:10174000C03008080838000007182020221E0200B8
:1017500008F808000008F808203F210101213F2077
:10176000000808F8080800000020203F20200000A2
:1017700000000808F8080800C08080807F00000092
:1017800008F888C028180800203F200126382000CB
:1017900008F8080000000000203F20202020300032
:1017A00008F8F800F8F80800203F003F003F20004C
:1017B00008F830C00008F808203F200007183F0054
:1017C000E01008080810E0000F10202020100F0083
:1017D00008F808080808F000203F21010101000076
:1017E000E01008080810E0000F18242438504F00BB
:1017F00008F8888888887000203F2000030C30207B
:1018000000708808080838000038202121221C00B8
:10181000180808F8080818000000203F2000000001
:1018200008F808000008F808001F202020201F00EA
:101830000878880000C83808000007380E0100004A
:10184000F80800F80008F800033C0700073C030014
:10185000081868808068180820302C03032C30207A
:101860000838C800C83808000000203F20000000E9
:1018700010080808C8380800203826212020180041
:10188000000000FE020202000000007F4040400015
:10189000000C30C000000000000000010638C0004D
:1018A00000020202FE000000004040407F000000F5
:1018B000000004020202040000000000000000001A
:1018C0000000000000000000808080808080808018
:1018D0000002020400000000000000000000000000
:1018E00000008080808000000019242222223F20F6
:1018F00008F8008080000000003F112020110E0039
:101900000000008080800000000E112020201100C7
:10191000000000808088F800000E112020103F2079
:101920000000808080800000001F222222221300FD
:10193000008080F0888888180020203F2020000048
:101940000000808080808000006B949494936000FD
:1019500008F8008080800000203F210000203F2008
:1019600000809898000000000020203F2020000008
:10197000000000809898000000C08080807F0000F8
:1019800008F8000080808000203F24022D302000D5
:10199000000808F8000000000020203F2020000080
:1019A0008080808080808000203F20003F20003F9A
:1019B0008080008080800000203F210000203F20A8
:1019C0000000808080800000001F202020201F0059
:1019D000808000808000000080FFA12020110E0088
:1019E0000000008080808000000E112020A0FF8079
:1019F000808080008080800020203F212000010026
:101A0000000080808080800000332424242419007A
:101A1000008080E0808000000000001F2020000087
:101A20008080000000808000001F202020103F20C8
:101A3000808080000080808000010E300806010058
:101A400080800080008080800F300C030C300F00FD
:101A500000808000808080000020312E0E31200028
:101A6000808080000080808080818E701806010058
:101A700000808080808080000021302C2221300076
:101A800000000000807C020200000000003F404097
:101A900000000000FF00000000000000FF00000048
:101AA0000002027C800000000040403F0000000077
:101AB0000006010102020404000000000000000012
:101AC000E01A00080000002014000000C401000813
:101AD000F41A00081400002074060000E001000859
:101AE00000000000000000000102030401020304E2
:041AF00006070809D4
:040000050800018965
:00000001FF
